:020000040000FA
:040000003AEF01F0E2
:020004000000FA
:020008001000E6
:080018001000500E016EFA0EFB
:10002000006E000000000000000000000000000062
:1000300000000000000000000000000000000000C0
:1000400000000000000000000000000000000000B0
:1000500000000000000000000000000000000000A0
:100060000000000000000000000000000000000090
:100070000000000000000000000000000000000080
:100080000000000000000000000000000000000070
:100090000000000000000000000000000000000060
:1000A0000000000000000000000000000000000050
:1000B0000000000000000000000000000000000040
:1000C0000000000000000000000000000000000030
:1000D0000000000000000000000000000000000020
:1000E0000000000000000000000000000000000010
:1000F0000000000000000000000000000000000000
:1001000000000000000000000000000000000000EF
:1001100000000000000000000000000000000000DF
:1001200000000000000000000000000000000000CF
:1001300000000000000000000000000000000000BF
:1001400000000000000000000000000000000000AF
:10015000000000000000000000000000000000009F
:10016000000000000000000000000000000000008F
:10017000000000000000000000000000000000007F
:10018000000000000000000000000000000000006F
:10019000000000000000000000000000000000005F
:1001A000000000000000000000000000000000004F
:1001B000000000000000000000000000000000003F
:1001C000000000000000000000000000000000002F
:1001D000000000000000000000000000000000001F
:1001E000000000000000000000000000000000000F
:1001F00000000000000000000000000000000000FF
:1002000000000000000000000000000000000000EE
:10021000002E07D7012E03D70000120082840DECB8
:1002200000F082940DEC00F082840DEC00F08294DA
:100230000DEC00F01200090E836E0DEC00F081A4AD
:1002400028D0060E836E0DEC00F081A422D0030EA0
:10025000836E0DEC00F081A41CD0050E836E0DECB6
:1002600000F081A416D0060E836E0DEC00F081A480
:1002700010D0E1D79368966A956A836A84809494D3
:10028000829481A01BEC01F000D081A20EEC01F061
:0C029000F8D783680EEC01F0836AF3D706
:00000001FF
